:100000000C945D000C9485000C9485000C94850084
:100010000C9485000C9485000C9485000C9485004C
:100020000C9485000C9485000C9485000C9485003C
:100030000C9485000C9485000C9485000C9485002C
:100040000C94DD050C9485000C9485000C948500BF
:100050000C9485000C9485000C9485000C9485000C
:100060000C94BE040C9485000000000800020100FE
:100070000003040700000000000000000000000072
:10008000250028002B0000000000240027002A0083
:10009000040404040404040402020202020203032E
:1000A0000303030301020408102040800102040836
:1000B0001020010204081020A40611241FBECFEF57
:1000C000D8E0DEBFCDBF11E0A0E0B1E0EEEDF8E199
:1000D00002C005900D92AE3AB107D9F722E0AEEA20
:1000E000B1E001C01D92A53BB207E1F710E0CDE5FC
:1000F000D0E004C02197FE010E94960ACC35D107BA
:10010000C9F70E94FB060C946D0C0C940000CF9371
:10011000DF9390E0FC01EC55FF4F249180579F4FF7
:10012000FC0184918823C1F090E0880F991FFC01A5
:10013000EA57FF4FC591D491FC01E458FF4FA591B8
:10014000B4919FB7F8948881E22FE0958E2388833D
:100150008C91E823EC939FBFDF91CF910895089590
:10016000089520914002260F3327331F2132310595
:10017000ECF420916402FC0190E080E0243069F00E
:1001800082E00895A09140022191AC01405E5D4F54
:10019000A40FB52FB11D2C930196861798F380916B
:1001A0004002680F6093400280E0089581E0089566
:1001B0000895E091910280919002E81730F4F0E008
:1001C000E650FE4F808190E008958FEF9FEF0895F5
:1001D00090919102809190022FEF3FEF981748F491
:1001E000E92FF0E0E650FE4F208130E09F5F9093D2
:1001F0009102C90108958091900290919102891B0A
:10020000990B0895CF92DF92EF92FF920F931F9375
:10021000CF93DF937C01CB018A012091F901222346
:1002200089F0EB016B01C40ED51ECC15DD0569F01C
:100230006991D701ED91FC910190F081E02DC7010A
:100240000995F3CF642F0E94B100C801DF91CF91CF
:100250001F910F91FF90EF90DF90CF900895CF9373
:10026000DF931F92CDB7DEB769832091F901222376
:10027000F9F020918E02203258F021E030E0FC01AC
:100280003383228390E080E00F90DF91CF91089537
:1002900080918F02E82FF0E0E752FE4F9981908322
:1002A0008F5F80938F0280938E0281E090E0ECCF8D
:1002B00061E0CE0101960E94B100F7CF90E0FC0111
:1002C000E859FF4F2491FC01EC55FF4F3491FC019C
:1002D000E057FF4FE491EE23C9F0222339F0233099
:1002E00001F1A8F4213019F1223029F1F0E0EE0FEC
:1002F000FF1FE458FF4FA591B4918FB7F894EC918C
:10030000611126C030953E233C938FBF089527305E
:10031000A9F02830C9F0243049F7809180008F7D02
:1003200003C0809180008F7780938000DFCF84B5F9
:100330008F7784BDDBCF84B58F7DFBCF8091B000FC
:100340008F778093B000D2CF8091B0008F7DF9CFAE
:100350003E2BDACF1092640281E080936602109205
:10036000650261E082E10E945E0161E083E10E943A
:100370005E01E9EBF0E080818E7F808380818D7F5C
:10038000808388E48093B80085E48093BC0008955E
:10039000CF93DF9391E090931F028823B9F0C0912F
:1003A000B800D091BA008091BC008A7B8093BC00D9
:1003B00060E082E10E945E0160E083E10E945E01F4
:1003C0000E94AA01D093BA00C093B800DF91CF91E8
:1003D0000895AF92BF92CF92DF92EF92FF920F9368
:1003E0001F93CF93DF936C017B018B01040F151FCB
:1003F000EB015E01AE18BF08C017D10759F0699133
:10040000D601ED91FC910190F081E02DC601099596
:10041000892B79F7C501DF91CF911F910F91FF9043
:10042000EF90DF90CF90BF90AF900895089590E047
:1004300080E00895CF93DF9300D000D0CDB7DEB732
:10044000AB01BC0119821A821B821C8289819A81AC
:10045000AB81BC8184179507A607B70760F4898133
:100460009A81AB81BC810196A11DB11D89839A83BC
:10047000AB83BC83EBCF0F900F900F900F90DF9169
:10048000CF9108953FB7F8948091B2019091B30154
:10049000A091B401B091B50126B5A89B05C02F3F2E
:1004A00019F00196A11DB11D3FBFBA2FA92F982F9A
:1004B0008827BC01CD01620F711D811D911D42E095
:1004C000660F771F881F991F4A95D1F70895CF921D
:1004D000DF92EF92FF920F931F93CF93DF93FC0174
:1004E000C48121E02093F901C093B80110928F02DA
:1004F00010928E028485682B82E992E00E942F017F
:10050000D0918E02D13208F092C00E9442026B015B
:100510007C0180916402811165C082E08093640255
:1005200081E0809366028FEF8093630210928802CD
:10053000D0938702A9EDB1E0E7E6F2E080E0D813BE
:1005400085C01092890280918902CC0FC82BC0937C
:10055000890280916502813009F07CC010926502A9
:100560000E9442026B017C01809189028093BB0052
:1005700080911B0290911C02A0911D02B0911E025D
:10058000892B8A2B8B2B99F00E94420200911B022F
:1005900010911C0220911D0230911E026C197D09E0
:1005A0008E099F090617170728073907E0F1809180
:1005B000BC0083FDD9CF85EC8093BC000E94420231
:1005C0006B017C0180916402823009F445C0809106
:1005D00063028F3F61F180916302803241F180912B
:1005E000630225C080911B0290911C02A0911D0204
:1005F000B0911E02892B8A2B8B2B09F48ACF0E9483
:10060000420200911B0210911C0220911D023091A8
:100610001E026C197D098E099F0906171707280706
:10062000390708F076CF80911A020E94C801109213
:100630008F0210928E021092F901DF91CF911F91DB
:100640000F91FF90EF90DF90CF9008959D9191933F
:100650008F5F75CF85EEB0CF80911B0290911C0209
:10066000A0911D02B0911E02892B8A2B8B2B09F4BD
:10067000A9CF0E94420200911B0210911C022091FE
:100680001D0230911E026C197D098E099F09061703
:1006900017072807390708F095CFC5CF8F929F928B
:1006A000AF92BF92CF92DF92EF92FF926B017C01EB
:1006B0000E9442024B015C010E94420268197909C2
:1006C0008A099B09683E734081059105A8F381E082
:1006D000C81AD108E108F10828EE820E23E0921E24
:1006E000A11CB11CC114D104E104F10429F7FF904D
:1006F000EF90DF90CF90BF90AF909F908F90089534
:10070000FC0101900020E9F73197AF01481B590B1C
:10071000BC0188EA92E00C94E90185ED8093BC006D
:1007200080911B0290911C02A0911D02B0911E02AB
:100730000796A11DB11D23E0B695A79597958795BE
:100740002A95D1F72091BC0024FD03C010926402C9
:10075000089540911B0250911C0260911D027091FE
:100760001E02452B462B472B69F30097A105B105C7
:1007700041F025E32A95F1F700000197A109B1099D
:10078000E1CF80911A020C94C8010F931F93CF936D
:100790008C01C62F0E9467026C2F6460C8010E9402
:1007A00067026C2F6B7FC8010E94670283EC90E0A8
:1007B0000197F1F7CF911F910F9108950F931F9318
:1007C000CF93DF938C01D62FC42F607F642B0E94C0
:1007D000C50380E1D89FB00111246C2BC801DF91C3
:1007E000CF911F910F910C94C503CF93DF93CDB799
:1007F000DEB728970FB6F894DEBF0FBECDBF98E0E6
:10080000E1E2F1E0DE01119601900D929A95E1F797
:100810009091B002961708F46FEF262F30E0220F68
:10082000331F41E050E04C0F5D1F240F351FF901CD
:100830006081680F606840E088EA92E028960FB611
:10084000F894DEBF0FBECDBFDF91CF910C94DE03D5
:1008500040E061E088EA92E00E94DE038BE39FE1E2
:100860000197F1F78091B102882321F060E080E0E8
:100870000C94F5030895CF93DF9310929102109298
:10088000900210928F0210928E020E94AA018FEAAB
:1008900090E090938D0280938C0280EB90E0909397
:1008A0008B0280938A021092AD028091B302823053
:1008B00018F098E09093AD028093B00262E370E08C
:1008C00080E090E00E944E036091B40288EA92E0DA
:1008D0000E94670268EE73E080E090E00E944E03A1
:1008E00060E388EA92E00E94C503CBE4D6E4CE013F
:1008F0000197F1F760E388EA92E00E94C50321972F
:10090000F1F760E388EA92E00E94C50383E592E094
:100910000197F1F760E288EA92E00E94C5036091D6
:10092000AD02606240E088EA92E00E94DE0384E06B
:100930008093AE0240E06CE088EA92E00E94DE0321
:100940000E94280482E08093AF0240E066E088EADB
:1009500092E00E94DE0340E062E088EA92E00E94BA
:10096000DE038BE39FE10197F1F7DF91CF910895CB
:1009700041E00E94DE0381E090E008951F920F9213
:100980000FB60F9211242F933F934F935F936F9362
:100990007F938F939F93AF93BF93EF93FF93809138
:1009A000B900887F803609F44AC0F0F5883209F42E
:1009B000A7C018F5803109F49BC0B8F4882309F466
:1009C000F9C0883009F494C0FF91EF91BF91AF91C5
:1009D0009F918F917F916F915F914F913F912F9157
:1009E0000F900FBE0F901F901895883109F488C0A2
:1009F000803251F78093630214C0803409F49DC0A3
:100A000040F48033B9F38833F9F68093630285ECC0
:100A1000B0C0803509F485C0883509F496C08834A3
:100A200099F60E948D03D0CF883909F48CC038F52F
:100A3000883729F050F4883611F0803729F683E0A2
:100A4000809364021092620257C0883809F47BC018
:100A5000803919F0803809F0B7CF80916202803276
:100A600008F071C0E091620281E08E0F8093620213
:100A70008091BB00F0E0EE5BFD4F80833DC0803B8A
:100A800039F0E0F4803A09F479C0883A09F09CCF53
:100A900084E0809364021092410210924002E0913F
:100AA0008C02F0918D0209958091400281110FC056
:100AB00081E0809340021092200209C0803C09F43A
:100AC000A6CF883C09F4A3CF883B09F07DCFE09105
:100AD000410281E08E0F80934102F0E0E05EFD4F25
:100AE00080818093BB00909141028091400229C097
:100AF000809189028093BB0085EC8093BC0064CF19
:100B00009091880280918702981758F5E0918802A9
:100B100081E08E0F80938802F0E0E959FD4F8081DB
:100B2000E9CFE091880281E08E0F80938802809166
:100B3000BB00F0E0E959FD4F8083909188028091DD
:100B400087029817C8F285E8D8CFE091880281E043
:100B50008E0F809388028091BB00F0E0E959FD4F31
:100B600080838091660281115CCF81E08093650271
:100B700084EA8093BC001092640226CF85EC8093B7
:100B8000BC001092640280916202803230F4E091E5
:100B90006202F0E0EE5BFD4F10826091620270E055
:100BA000E0918A02F0918B0282E492E00995109222
:100BB00062020ACF1092630234CF1F920F920FB6D7
:100BC0000F9211242F938F939F93EF93FF93809114
:100BD000B7018F5F8093B7019091D801891708F40E
:100BE00076C08091B6018F3011F41092B6018091D9
:100BF00001018F3011F410920101809100018F30BA
:100C000011F410920001E091B601F0E0EE0FFF1F29
:100C1000ED5FFE4F80819181883091050CF061C0BD
:100C200017BC87B58B5F88BDE0910101F0E0EE0F46
:100C3000FF1FED5FFE4F808191812091CE018830B2
:100C400091050CF056C0222309F44EC01092B30057
:100C50008091CE01882309F458C08091B3008B5F46
:100C60008093B400E0910001F0E0EE0FFF1FED5F14
:100C7000FE4F808191812091CE01883091050CF04A
:100C800051C0222309F44BC01092890010928800B1
:100C90008091CE01882309F451C080918800909101
:100CA0008900059690938B0080938A001092B7017B
:100CB0008091B6018F5F8093B601809101018F5FB3
:100CC00080930101809100018F5F80930001FF916B
:100CD000EF919F918F912F910F900FBE0F901F90CA
:100CE0001895825087BD9DCF109289001092880080
:100CF000AFCF8250222319F08093B300A9CF90E0A8
:100D00009093890080938800A3CF80918800909170
:100D10008900059690938B0080938A00A3CF109250
:100D2000B300B6CF8250222331F090E09093890037
:100D300080938800ADCF8093B300AACF8091B30099
:100D40008B5F8093B400B2CFFF920F931F93CF932A
:100D5000DF93E2E9F2E01382128288EE93E0A0E0F2
:100D6000B0E084839583A683B78389E691E091837D
:100D70008083E8EAF2E0138212828BE791E09183AC
:100D80008083118687E2848384E1828784E0F82E61
:100D9000F3861486C3EAD2E08CE0888382E08983FC
:100DA00004E610E01C830B838CE00E94870089819D
:100DB0000E94870060E088810E945E0160E0898176
:100DC0000E945E01CEE9D2E087E08883F9821C832D
:100DD0000B830E94870089810E94870060E08881E0
:100DE0000E945E0160E08981DF91CF911F910F9198
:100DF000FF900C945E01CF93DF93CDB7DEB7A3973E
:100E00000FB6F894DEBF0FBECDBF789484B5826074
:100E100084BD84B5816084BD85B5826085BD85B59E
:100E2000816085BD80916E00816080936E0010921C
:100E30008100809181008260809381008091810097
:100E40008160809381008091800081608093800028
:100E50008091B10084608093B1008091B000816086
:100E60008093B00080917A00846080937A008091B2
:100E70007A00826080937A0080917A00816080930A
:100E80007A0080917A00806880937A001092C10085
:100E90000E943B040E943B0488E08093B40260E01F
:100EA00088EA92E00E94670280E091E00E944A0A8C
:100EB0008B3731F490E080E00E944A0A8093CE01A3
:100EC000F89480E88093610001E0009361007894D9
:100ED0001AE01093A5021093A0020E94280418B9EA
:100EE00088E68AB98FE084B960E083E00E94F50368
:100EF00083E891E00E94800360E874E88EE190E06E
:100F00000E941A020E94280405B911E0EFE72E2E74
:100F1000312C63E8862E01EB7FE7972E52E4452EB5
:100F200040927C0080917A00806480937A00809166
:100F30007A0086FDFCCF80917800C0907900DC2C8F
:100F4000C82E43E0D594C7944A95E1F72C2D293754
:100F500008F028E7243108F424E1622F70E081E1F1
:100F600094E00E94600A6093D801C22ED12CF12C2B
:100F7000E12CC701B6010E94490B2AE939E949E988
:100F800050E40E94000C20E030E040E753E40E946F
:100F9000A10A2B013C012DEC3CEC4CEC5DE30E94E2
:100FA0009C0A87FD62C020E030E040E85FE3C301B7
:100FB000B2010E94FB0B18160CF45FC099E2A92E37
:100FC00091E0B92E23E031E03BA32AA3F501619122
:100FD0007191819191915F01A30192010E94000C96
:100FE0000E94130BEAA1FBA161937193FBA3EAA3F7
:100FF00025E631E02A153B0549F733998FC0B090BB
:1010000002014090D3015090D4016090D5017090BE
:10101000D60132E0B31238C08091C2019091C30171
:10102000A091C401B091C501A3019201281B390B05
:101030004A0B5B0BDA01C9010297A105B10508F063
:101040005CC18091BA019091BB01A091BC01B091AB
:10105000BD010196A11DB11D8093BA019093BB0102
:10106000A093BC01B093BD0150C13DEC432E3CECBC
:10107000532E652C3DE3732EA1CF412C512C20E83B
:10108000622E2FE3722E9ACF8091C2019091C301FC
:10109000A091C401B091C501A3019201281B390B95
:1010A0004A0B5B0BDA01C9010297A105B10508F4EF
:1010B00010C11092BE011092BF011092C001109297
:1010C000C1014092C2015092C3016092C40170926A
:1010D000C5011092BA011092BB011092BC0110928E
:1010E000BD018091BE019091BF01A091C001B0915E
:1010F000C101853F9140A105B10568F041E04093F1
:10110000B9011092BE011092BF011092C00110925D
:10111000C1010E94280451E0B5127ECF8091B9012F
:10112000882309F422C18091CE01811119C1F8945C
:1011300082E08093020183BC04BD15BD10936E0054
:1011400017BC98BC00938000109381001092890016
:101150001092880030928B0020928A000093B00099
:101160001093B1001092B3009092B40016BC10928C
:101170008500109284001092B20013BC60EA70E007
:1011800080E090E00E941A0278948091020122E0AF
:10119000823009F446C031990BC14091D30150917E
:1011A000D4016091D5017091D6018091CA019091CE
:1011B000CB01A091CC01B091CD012A013B01481A8D
:1011C000590A6A0A7B0AD301C2010297A105B10537
:1011D00008F4DAC01092C6011092C7011092C8013B
:1011E0001092C9014093CA015093CB016093CC0186
:1011F0007093CD018091C6019091C701A091C80163
:10120000B091C901843F9140A105B10529F48091B5
:10121000D70181278093D70120910201222309F46D
:1012200005C18091CF019091D001A091D101B091E1
:10123000D2010196A11DB11D223009F0E4C08093B6
:10124000CF019093D001A093D101B093D201893CFA
:101250009105A105B10510F00E94280460E083E02B
:101260000E94F5038EE891E00E948003A701960199
:1012700019A27E0181E2E80EF11CCA01B9012AE03F
:1012800030E040E050E00E94740A605DF701629334
:101290007F01211531054105510579F7309761F03E
:1012A00001900020E9F73197AF014E195F09B701AE
:1012B00088EA92E00E94E90184E991E00E948003BB
:1012C0001092CF011092D0011092D1011092D20150
:1012D000ADC08091BE019091BF01A091C001B091BD
:1012E000C1010196A11DB11D8093BE019093BF0164
:1012F000A093C001B093C101E4CE1092BA01109244
:10130000BB011092BC011092BD014092C2015092EB
:10131000C3016092C4017092C5011092BE01109287
:10132000BF011092C0011092C1018091BA01909149
:10133000BB01A091BC01B091BD0185369105A1050D
:10134000B10508F4EBCE1092B9011092BA011092D7
:10135000BB011092BC011092BD010E942804DECE98
:10136000F89492E090930201E6CEE1E0E09302016E
:10137000F89414BC15BC1092800010928100109259
:10138000B0001092B10000CF8091C6019091C701CA
:10139000A091C801B091C9010196A11DB11D809312
:1013A000C6019093C701A093C801B093C9011ACF99
:1013B0008091C6019091C701A091C801B091C90167
:1013C0000B97A109B109893E9140A105B10590F49F
:1013D0008091D701882371F06091CE0161276093DD
:1013E000CE0190E080E00E94520A6BE780E091E03D
:1013F0000E94520A1092C6011092C7011092C801B1
:101400001092C90109CF2091D7018093CF01909309
:10141000D001A093D101B093D201222321F18436CF
:101420009105A105B105F9F40E9428048091D3012A
:101430009091D401A091D501B091D6010196A11D42
:10144000B11D8093D3019093D401A093D501B093A3
:10145000D60180E0482E80E0582E452809F45ECD64
:101460000E94000056CD893C9105A105B105F0F21E
:1014700061E083E00E94F50387E991E00E94800328
:101480008091CE01882319F08EE991E017CF86EA8A
:1014900091E014CFF999FECF92BD81BDF89A9927BA
:1014A00080B50895262FF999FECF1FBA92BD81BD50
:1014B00020BD0FB6F894FA9AF99A0FBE01960895D6
:1014C000AA1BBB1B51E107C0AA1FBB1FA617B7076A
:1014D00010F0A61BB70B881F991F5A95A9F7809586
:1014E0009095BC01CD010895A1E21A2EAA1BBB1B49
:1014F000FD010DC0AA1FBB1FEE1FFF1FA217B307E0
:10150000E407F50720F0A21BB30BE40BF50B661FF5
:10151000771F881F991F1A9469F7609570958095B9
:1015200090959B01AC01BD01CF010895EE0FFF1F07
:101530000590F491E02D09940E94860B08F481E057
:1015400008950E94B50A0C94C10B0E94BA0B58F082
:101550000E94B30B40F029F45F3F29F00C94AA0BD2
:1015600051110C94F50B0C94B00B0E94D20B68F344
:101570009923B1F3552391F3951B550BBB27AA274C
:1015800062177307840738F09F5F5F4F220F331F86
:10159000441FAA1FA9F335D00E2E3AF0E0E832D04E
:1015A00091505040E695001CCAF72BD0FE2F29D051
:1015B000660F771F881FBB1F261737074807AB0723
:1015C000B0E809F0BB0B802DBF01FF2793585F4F98
:1015D0003AF09E3F510578F00C94AA0B0C94F50B51
:1015E0005F3FE4F3983ED4F3869577956795B7957A
:1015F000F7959F5FC9F7880F911D9695879597F985
:101600000895E1E0660F771F881FBB1F62177307FD
:101610008407BA0720F0621B730B840BBA0BEE1F12
:1016200088F7E09508950E941A0B6894B1110C9404
:10163000F50B08950E94DA0B88F09F5798F0B92FA8
:101640009927B751B0F0E1F0660F771F881F991FF7
:101650001AF0BA95C9F714C0B13091F00E94F40B9A
:10166000B1E008950C94F40B672F782F8827B85FAA
:1016700039F0B93FCCF3869577956795B395D9F74F
:101680003EF490958095709561957F4F8F4F9F4F59
:101690000895E89409C097FB3EF490958095709565
:1016A00061957F4F8F4F9F4F9923A9F0F92F96E9AE
:1016B000BB279395F695879577956795B795F11123
:1016C000F8CFFAF4BB0F11F460FF1BC06F5F7F4FC0
:1016D0008F4F9F4F16C0882311F096E911C07723D2
:1016E00021F09EE8872F762F05C0662371F096E8DB
:1016F000862F70E060E02AF09A95660F771F881FAA
:10170000DAF7880F9695879597F90895990F00084D
:10171000550FAA0BE0E8FEEF16161706E807F907C3
:10172000C0F012161306E407F50798F0621B730B5E
:10173000840B950B39F40A2661F0232B242B252BDF
:1017400021F408950A2609F4A140A6958FEF811D82
:10175000811D089597F99F6780E870E060E0089523
:101760009FEF80EC089500240A94161617061806B9
:101770000906089500240A94121613061406050695
:101780000895092E0394000C11F4882352F0BB0F26
:1017900040F4BF2B11F460FF04C06F5F7F4F8F4F89
:1017A0009F4F089557FD9058440F551F59F05F3FC4
:1017B00071F04795880F97FB991F61F09F3F79F073
:1017C00087950895121613061406551FF2CF4695F5
:1017D000F1DF08C0161617061806991FF1CF869577
:1017E0007105610508940895E894BB27662777275B
:1017F000CB0197F908950E94860B08F48FEF0895A6
:101800000E94130C0C94C10B0E94B30B38F00E9481
:10181000BA0B20F0952311F00C94AA0B0C94B00B8A
:1018200011240C94F50B0E94D20B70F3959FC1F319
:10183000950F50E0551F629FF001729FBB27F00D7E
:10184000B11D639FAA27F00DB11DAA1F649F6627D3
:10185000B00DA11D661F829F2227B00DA11D621F22
:10186000739FB00DA11D621F839FA00D611D221FDC
:10187000749F3327A00D611D231F849F600D211DC0
:10188000822F762F6A2F11249F5750409AF0F1F043
:1018900088234AF0EE0FFF1FBB1F661F771F881FAC
:1018A00091505040A9F79E3F510580F00C94AA0B2F
:1018B0000C94F50B5F3FE4F3983ED4F3869577954F
:1018C0006795B795F795E7959F5FC1F7FE2B880F52
:0E18D000911D9695879597F90895F894FFCF8E
:1018DE000A05017D00B300DF00F600F600DF00B35D
:1018EE00007D0047001B00060006001B0047007D20
:1018FE000000004000140054000000FA42000033C3
:10190E004300005F43000076430000764300005F13
:10191E0043000033430000FA4200008E420000D81C
:10192E00410000C0400000C0400000D84100008EC1
:10193E00420000FA42000000002F0102011702D8F7
:10194E0000FB00E800D90000000000B804E9011710
:10195E00021602235354415254494E472100465217
:10196E0045513A00487A004D4F44453A20005245C1
:0E197E00564552534500464F525741524400C1
:00000001FF
